:1000000010308A0076280000FF00030E83120313CD
:10001000A1000A08A0008A010408A2007708A30032
:100020007808A4007908A5007A08A6007B08A70034
:10003000831383120B1E1E288B1837288C308400E4
:10004000801E24288C1A3A28220884002308F700EE
:100050002408F8002508F9002608FA002708FB0004
:1000600020088A00210E8300FF0E7F0E09008A11EE
:100070000A123D288A110A12542889100911A91759
:100080002917B2108B108A110A1224288C1E4628B8
:100090001808A8001A08F800A81C502818121816EA
:1000A00000008A110A125528462878088316E400B1
:1000B000E41B5C2883126828831283166408F03CD2
:1000C000031D6428831267288312321268283216AF
:1000D00083166408E50083128316661076087C0296
:1000E000031D7428831290288312F608031D8428A8
:1000F0007C08323C031980288316661083128328FB
:10010000831666148312902801307C077602031947
:100110008D28831666108312902883166614831226
:100120000030831666180130F8008312F8080319AE
:100130009B28B216AF2883166508E6008312433069
:100140007C0784008316660880007C08323C031913
:10015000AB288312AE288312FC01AF28FC0A8C1254
:100160008A110A1224287E308316DC005A08073CC4
:10017000031CBC288312C12883127D308316DC0047
:10018000831207308316DA055B083F3C031CCA283C
:100190008312DE28831283165C0884000130F70086
:1001A0005A08F800031DD6288312DB288312031097
:1001B000F70DF80BD72877088004F12883165C0820
:1001C00084000130F7005A08F800031DE928831263
:1001D000EE2883120310F70DF80BEA287708FF3A90
:1001E00080057D308316DD000230DE004230DF0006
:1001F0008312B11131088316870083128711831689
:10020000E001831283165E086002031C0929831231
:100210003E29831283165D08600784000008E2000F
:10022000E101831283166108073C03181929831220
:100230003A298312831662088039003A0319222969
:100240008312252983128810262988140310831607
:10025000E20D8312B11131088316870083128715CE
:10026000B111310883168700831287118316E10AC2
:10027000831212298316E00A8312022983165F086B
:10028000F70042307702031D472983124929831260
:100290004C29081108154C290034FD01FE01831674
:1002A000DA01DB018312B3200034D6308400000869
:1002B000031967290630F800F701F70B5D29F80BE1
:1002C0005C297B30F700F70B6329800B5A29003437
:1002D0008316561083123211FF30B3000130B40080
:1002E000321F7E29831639088312B30083163A0819
:1002F0008312B4008316561483122B2A7C087602CC
:1003000003198429003085290130F800F808031DFD
:10031000B629640083168C1283124330760784005A
:1003200000088316D8007608323C031999298312F5
:100330009C298312F6019D29F60A83165808F800B5
:10034000831278088316D7008C168312B215831691
:100350005708F80083127808B400340FB029B12987
:100360003215B3018316561483122B2A8316BD1837
:10037000BB298312ED29831234308316D7008312F0
:1003800083165708D800831242088316D9008312B7
:1003900083165908831203178D008F0183168C135F
:1003A0000C1483120C08F8000313831658088400F9
:1003B000780880008312C20A4208F800F808031D7A
:1003C000E5298316BD108312E8298316BD14831214
:1003D0004930B3008316561483128316561CF22933
:1003E00083122B2A83120030C11A0130F800F8085A
:1003F000031D2B2A41080339F7000310F70D770876
:10040000393E84000008B30041080339F7000310A7
:10041000F70D7708013E393E84000008B40041081A
:10042000013E0339F700FC3041057704C100F700B5
:10043000F70C770C03398316D70083124108033970
:10044000831657020319262A8312282A8312C116FB
:1004500083165614831233088316B90083123408A6
:100460008316BA005618362A83123C2A8312321B8E
:100470003C2A8316BB0A83123213003083165618A7
:100480000130F800831200342913B21089100911C9
:10049000E03083168800831288128815B317B31FC3
:1004A000562A08168316081283125A2A081283162F
:1004B00008128312831688128312881683168812F4
:1004C000831288120310B30DB31F6B2A081683160C
:1004D000081283126F2A08128316081283128316D9
:1004E00088128312881683168812831288120310CA
:1004F000B30DB31F802A0816831608128312842AAC
:100500000812831608128312831688128312881623
:1005100083168812831288120310B30DB31F952A15
:100520000816831608128312992A081283160812D5
:1005300083128316881283128816831688128312F8
:1005400088120310B30DB31FAA2A081683160812C7
:100550008312AE2A08128316081283128316881299
:100560008312881683168812831288120310B30D23
:10057000B31FBF2A0816831608128312C32A081253
:100580008316081283128316881283128816831624
:100590008812831288120310B30DB31FD42A0816D1
:1005A000831608128312D82A08128316081283129F
:1005B0008316881283128816831688128312881273
:1005C0000310B30DB31FE92A08168316081283120D
:1005D000ED2A0812831608128312831688128312DA
:1005E00088168316881283128812B41FFC2A0816F4
:1005F000831608128312002B081283160812831226
:100600008316881283128816831688128312881222
:100610000310B40DB41F112B081683160812831291
:10062000152B081283160812831283168812831260
:10063000881683168812831288120310B40DB41F13
:10064000262B08168316081283122A2B08128316EB
:100650000812831283168812831288168316881252
:10066000831288120310B40DB41F3B2B0816831697
:10067000081283123F2B0812831608128312831666
:100680008812831288168316881283128812031028
:10069000B40DB41F502B0816831608128312542B66
:1006A0000812831608128312831688128312881682
:1006B00083168812831288120310B40DB41F652BA1
:1006C0000816831608128312692B08128316081263
:1006D0008312831688128312881683168812831257
:1006E00088120310B40DB41F7A2B08168316081253
:1006F00083127E2B08128316081283128316881227
:100700008312881683168812831288120310B40D80
:10071000B41F8F2B0816831608128312932B08120E
:100720008316081283128316881283128816831682
:10073000881283128812D0308316880083123214F4
:10074000321DA42B0915A52B89140034A913B1114E
:1007500031088316870083128711A913D0308316BE
:1007600088008312B1113108831687008312871124
:10077000B501B6018811831608178312081B3514BA
:1007800083168812831288168316881283128812A1
:100790000310B50D831608178312081B3514831632
:1007A0008812831288168316881283128812031007
:1007B000B50D831608178312081B3514831688128B
:1007C0008312881683168812831288120310B50DBF
:1007D000831608178312081B351483168812831298
:1007E000881683168812831288120310B50D83169B
:1007F00008178312081B3514831688128312881673
:1008000083168812831288120310B50D83160817F9
:100810008312081B351483168812831288168316D8
:100820008812831288120310B50D831608178312DD
:10083000081B3514831688128312881683168812B3
:10084000831288120310B50D831608178312081B34
:100850003514831688128312881683168812831221
:100860008812831608178312081B36148316881201
:100870008312881683168812831288120310B60D0D
:10088000831608178312081B3614831688128312E6
:10089000881683168812831288120310B60D8316E9
:1008A00008178312081B36148316881283128816C1
:1008B00083168812831288120310B60D8316081748
:1008C0008312081B36148316881283128816831627
:1008D0008812831288120310B60D8316081783122C
:1008E000081B361483168812831288168316881202
:1008F000831288120310B60D831608178312081B83
:10090000361483168812831288168316881283126F
:1009100088120310B60D831608178312081B3614AD
:1009200083168812831288168316881283128812FF
:100930000310B60D831608178312081B361483168E
:1009400088128312881683168812831288128815DB
:10095000891009110034B1123108831687008312FF
:1009600087120830F800000000000000F817CA2CB9
:10097000F8138316DB0C831203188716031C8712E7
:100980007817CA2C7813F80BB92C0000000000006F
:100990008716CA2C2F308400840BCC2CF81BB82C63
:1009A000781BC22C8A150A12532A0830F80000005E
:1009B0000430F700F70BDA2C061383160613063003
:1009C000F7008312F70BE22C8316E20D83128613D5
:1009D000031CED2C8316861783120318F22C831642
:1009E00086138312831606178312061FF52CF80B45
:1009F000D72C0430F700F70BFB2C061383160613D5
:100A0000000086170630F7008312F70B052D06301D
:100A1000F700F70B092D831606178312061F0E2DFC
:100A2000F8010630F700F70B132D861B7814061318
:100A300083160613831286138316861383120034DB
:100A4000F701F80183164D0803104E18F707F70C4D
:100A5000F80CCE18F707F70CF80C4E19F707F70C3F
:100A6000F80CCE19F707F70CF80C4E1AF707F70C2D
:100A7000F80CCE1AF707F70CF80C4E1BF707F70C1B
:100A8000F80CCE1BF707F70CF80C83128A110A1228
:100A9000622E83164210B730C500B530C600B801CB
:100AA000B701B730C7000230C8003C30C90083121C
:100AB000B111310883168700831287118316490804
:100AC000F7003C307702031D672D8312692D8312D6
:100AD000762D3111310883168700831207113111E9
:100AE00031088316870083120715772D772D83161B
:100AF000CA018312831648084A02031C812D8312FF
:100B0000CE2D83128316CC01CB01831283164B08A2
:100B1000073C03188D2D8312C32D831203108316F7
:100B2000CC0D4908F7003C307702031D992D831244
:100B30009B2D8312AA2D311631088316870083124C
:100B4000071AA62D83164D108312A92D83164D1456
:100B50008312AA2D83164D18AF2D8312B32D831245
:100B600083164C148312B111310883168700831247
:100B70008715B111310883168700831287118316F8
:100B8000CB0A8312862D831647084A0784004C0837
:100B9000800083128316CA0A83127A2D83163508C1
:100BA00037020319D52D8312DE2D831283163608E2
:100BB0003802031DDD2D83127B2F83128316C1089B
:100BC000031DE42D83127B2F83128316C40183122D
:100BD00083164408013C0318EF2D83127B2F8312E8
:100BE0008316C301831283164308073C0318FA2DAA
:100BF0008312772F83120030A91B0130F800F80808
:100C00000319082E8A1500208A11831642148312B4
:100C100083164508440784000008C700F70043080E
:100C2000F800031D152E83121A2E83120310F70CE1
:100C3000F80B162E0030771801308316C8004608CE
:100C4000440784000008C900F7004308F800031DAA
:100C50002B2E8312302E83120310F70CF80B2C2E40
:100C600000307718013083164802031D392E831295
:100C7000732F831283164408013CF7000310F70D0D
:100C8000F70DF70DF830F70577084307C900450859
:100C9000440784000008CA00F7004308F800031D59
:100CA000532E8312582E83120310F70CF80B542E78
:100CB0000030771C01308316CC00CD00FF30CE0011
:100CC0008312202D78088316CD004908CE004D08E8
:100CD000CF0083128316D0014E083038D000D100E7
:100CE0004F08D2008312831653108312C11A892E23
:100CF0004108F700F70C770C03398316D4008312F0
:100D00004108033983165402031D882E83128B2E4B
:100D1000831200308C2E0130F800F808031DC42E19
:100D200083165108D4005208D50083124108F700F9
:100D3000F70C770C0339F7000310F70D7708393EED
:100D4000840083165408800083124108F700F70CD2
:100D5000770C0339F7000310F70D7708013E393E91
:100D6000840083165508800083124108043E0C3924
:100D7000F700F33041057704C100C1128A15002045
:100D80008A118316531483120030831653180130CE
:100D9000F8008312F80803192D2F83165008D1008C
:100DA0004F08D2008312831653108312C11AE92E02
:100DB0004108F700F70C770C03398316D40083122F
:100DC0004108033983165402031DE82E8312EB2ECB
:100DD00083120030EC2E0130F800F808031D242F98
:100DE00083165108D4005208D50083124108F70039
:100DF000F70C770C0339F7000310F70D7708393E2D
:100E0000840083165408800083124108F700F70C11
:100E1000770C0339F7000310F70D7708013E393ED0
:100E2000840083165508800083124108043E0C3963
:100E3000F700F33041057704C100C1128A15002084
:100E40008A1183165314831200308316531801300D
:100E5000F8008312F808031D2F2F0030302F0130C7
:100E6000F800F8080319732F831645084407840017
:100E70000008C700F7004308F800031D412F831244
:100E8000462F83120310F70CF80B422F771C5C2FB0
:100E900083164608440784000130F7004308F80031
:100EA000031D542F8312592F83120310F70DF80BD3
:100EB000552F77088004702F831646084407840056
:100EC0000130F7004308F800031D682F83126D2FCF
:100ED00083120310F70DF80B692F7708FF3A80058E
:100EE0008316421483128316C30A8312F32D8316CA
:100EF000C40A8312E82D0030831642180130F8002E
:100F000083120034831634081F39F7000310770C5E
:100F1000BF00BF0CBF0C1F30BF0534081F39C00015
:100F2000401C942F8312972F83128610982F8614BB
:100F3000831634081F39C000C01CA02F8312A32FB2
:100F400083120611A42F0615831634081F39C0001A
:100F5000401DAC2F8312AF2F83128611B02F861540
:100F600000000000000000000000031083163F0D89
:100F7000F700F70DF70DF830F7057708F800831242
:100F80001F08C73978049F003130F700F70BC62FD0
:100F9000000000008A110A16ED28BF308400000806
:100FA0000319D72FD52F00000000800BD32F00345A
:101000008316541083120030A91B0130F800F80831
:101010000319742B640089100911A913D0308316A9
:1010200088008312B111310883168700831287115B
:10103000B501B6018811831608178312081B3514F1
:1010400083168812831288168316881283128812D8
:101050000310B50D831608178312081B3514831669
:10106000881283128816831688128312881203103E
:10107000B50D831608178312081B351483168812C2
:101080008312881683168812831288120310B50DF6
:10109000831608178312081B3514831688128312CF
:1010A000881683168812831288120310B50D8316D2
:1010B00008178312081B35148316881283128816AA
:1010C00083168812831288120310B50D8316081731
:1010D0008312081B35148316881283128816831610
:1010E0008812831288120310B50D83160817831215
:1010F000081B3514831688128312881683168812EB
:10110000831288120310B50D831608178312081B6B
:101110003514831688128312881683168812831258
:101120008812831608178312081B36148316881238
:101130008312881683168812831288120310B60D44
:10114000831608178312081B36148316881283121D
:10115000881683168812831288120310B60D831620
:1011600008178312081B36148316881283128816F8
:1011700083168812831288120310B60D831608177F
:101180008312081B3614831688128312881683165E
:101190008812831288120310B60D83160817831263
:1011A000081B361483168812831288168316881239
:1011B000831288120310B60D831608178312081BBA
:1011C00036148316881283128816831688128312A7
:1011D00088120310B60D831608178312081B3614E5
:1011E0008316881283128816831688128312881237
:1011F0000310B60D831608178312081B36148316C6
:101200008812831288168316881283128812881512
:10121000350FE6292A08033C0319AA013608F7000E
:101220000A30770203192D290130770203192D297D
:101230000630770203193C29033077020319472946
:10124000FF30770203194C2905307702031955291D
:101250000430770203195E29852932108A1168212A
:101260008A15F80803193B293308B7003408B80079
:101270008A1144228A15E5298A1168218A153308C2
:10128000B7003408B8008A1144228A15E5298A116A
:101290004D218A154A29E5293211FF30B300073064
:1012A000B4008A1144228A15E5293211FF30B300B7
:1012B0000730B4008A1144228A15E529321C7A29A4
:1012C00003308316D60083128A1155218A15003007
:1012D000A91B0130F800F808031971298A11A62307
:1012E0008A153211FF30B3000730B4008A1144224E
:1012F0008A1584298A1168218A153308B7003408B1
:10130000B8008A1144228A15E5293608F039831677
:10131000D500F700E0307702031D90298312982949
:10132000D0307702031D96298312C5298312E32941
:10133000360801398316D6003B0801395602031DD1
:10134000A3298312BB2983128316390FA829AA293E
:101350008312B929831283163A08013C0319B22972
:101360008312B929831236088316BB008312321305
:10137000BA293217BC2932133211FF30B3000830BA
:10138000B4008A1144228A15E429360801398316EB
:10139000D6003C0801395602031DD0298312D929F1
:1013A00083123211FF30B300B4018A1144228A152E
:1013B000E3298A1168218A153308B7003408B80078
:1013C0008A1144228A15E429E529702B8A116821A3
:1013D0008A153308B7003408B8008A1144228A15E8
:1013E00035088039003A031D702B35088316D60066
:1013F000831236088316D7008312831656080F39D6
:10140000D80056087039D900F70030307702031D34
:101410000B2A83122A2A7708031D102A8312362AE0
:1014200010307702031D162A8312432A20307702D8
:10143000031D1C2A8312572A40307702031D222ADB
:101440008312B42A50307702031D282A8312522BAC
:1014500083126C2BA91C352A83165808DA0057080A
:10146000DB0083128A11B3208A156D2BA91C422A36
:1014700083165708DA00831283165A0883120C1E4B
:101480003F2A99006D2BA91C562A83165708DA00AB
:1014900083120B138B138B1B4A2A83165A08DB000B
:1014A00083128A11AB2C8A15C0308B046D2BA91CBA
:1014B000B32A83165808DA005708DB008312831614
:1014C0005A08DC005B08DD0083128316861704309F
:1014D000F7008312F70B6A2A831606170630F70007
:1014E0008312F70B712A8613831686130430F700D4
:1014F0008312F70B792A06138316061303105C0C6C
:10150000DF00DF0C3F30DF050310DF0D5F085038D0
:10151000E100E20083128A11D5248A1583165C0843
:101520000339E000E20083128A11D5248A1583165C
:101530005D08E20083128A11D5248A15831686136A
:10154000000006178312061FA32A0430F700F70BCA
:10155000A72A000000000000831686170430F70059
:101560008312F70BB12A6D2B83165608DA00570841
:10157000DB00831283165A08F70040307702031D00
:10158000C32A8312FB2A43307702031DC92A831220
:10159000FC2A41307702031DCF2A8312FD2A4630F0
:1015A0007702031DD52A8312FF2A42307702031DDA
:1015B000DB2A8312002B47307702031DE12A8312B6
:1015C000012B48307702031DE72A8312032B4A3090
:1015D0007702031DED2A8312092B49307702031D80
:1015E000F32A83120D2B4B307702031DF92A831245
:1015F000452B8312502B512B512BC201512B512BB8
:10160000512BA910512BA91483163D108312B2132C
:10161000512B8316BD148312512B83165B08DC00FB
:1016200083124208C20A8316DD00DE005C08DF0078
:101630008312640083165E08831203178D008F01E6
:10164000831603135F08831203178C0083168C1311
:101650000C15831203130B08F7008B1355308316F8
:1016600003178D00AA308D008C1483120313831688
:1016700003178C1C3E2B83120313372B0C11770896
:10168000831203138B046400512B83163D1C4A2BD9
:1016900083124F2B8312B21B4F2BA918502B4F2BA9
:1016A000512B6D2B83165608DA005708DB00831286
:1016B00083165A08F70050307702031D612B8312FE
:1016C000632B83126A2B83165B088312AA00AF0177
:1016D000AE016B2B6B2B6D2B6D2B8316BC0A83120B
:1016E00083165414831203280030291B0130F8009C
:1016F000F8080319902B3218902B64008A11682186
:101700008A15F8080319902B891009113308B700BE
:101710003408B8008A1144228A158316541483129F
:101720000030831654180130F800831200340B1374
:101730008B138B1B982B8A114D218A150030831631
:1017400089008312891009118316C101831283163F
:101750004108073C0318AE2B8312D62B8312831645
:10176000C3016430C2008312311031088316870030
:1017700083120714640083164208D60083128A116C
:1017800055218A15640031103108831687008312B1
:10179000071083164208D60083128A1155218A1534
:1017A000640064008316C10A8312A72BF33041053D
:1017B000C100FC304105C1004112C1161F08383973
:1017C000C1389F00853083169F00E0303405B40097
:1017D000F1308600B101B001B301B201C101831241
:1017E000831641080F3C0318F72B8312022C831237
:1017F000A030831641078400800183128316C10A3A
:101800008312F02BFF308316B9000130BA00FF308D
:101810008312B7000730B80083168C128312FC01C4
:10182000F6013212B215B21283168C168312831689
:10183000C10183128A1149258A1583160117831263
:101840000B168A11A6238A15C0308B043211FF3083
:10185000B3000730B4008A1144228A158A114D2141
:101860008A158316BF01831283163F080F3C0318A5
:101870003B2C83127A2C831283163F0883120317A2
:101880008D008F0183168C130C1483120C088316A1
:101890000313C00040080A3C031C502C8312762C12
:1018A000831283163F08831203178D008F010230C5
:1018B0008C0083168C130C15831203130B08F7008E
:1018C0008B135530831603178D00AA308D008C14AE
:1018D00083120313831603178C1C712C83120313BA
:1018E0006A2C0C117708831203138B048316BF0A2A
:1018F0008312342C8A110A16C92801308316BF00BE
:10190000831283164010C601C7010430C50064006D
:1019100083128316C508031D8F2C8312C22C8312D9
:101920000030A91B0130F800F8080319A22C002090
:10193000F808031D9F2C831640108312A22C8316D7
:10194000401483128316C801C90183121F151F1981
:10195000A72C1E08FA0083161E08C8007A08C900C2
:101960004808F8004908F900831279088316C20074
:101970007808C100C6070318C70A4208C707C5038D
:101980008312892C03108316C70CC60CC70CC60C17
:101990003F30C7054708C2004608C10034081F3958
:1019A000C800C9004208CB004108CA008312831650
:1019B0004908831203178D008F0183168C130C14B2
:1019C00083120C0883160313CC0083128316CC08F1
:1019D000031DEC2C83120A2D83128316CC03FA010B
:1019E0000130F9004C08F700031DF82C8312FE2C7F
:1019F00083120310F90DFA0DF70BF92C7908FF3A51
:101A0000F700FF30FA0677088316CA057A08CB0577
:101A10008312E62C83164A08F8004B08F90083125B
:101A200079088316C2007808C10083128316C801A2
:101A3000C90134081F39A03E84000008FA01C8001B
:101A40007A08C9000310C80DC90DC80DC90DFC30B6
:101A5000C80534081F39CA003308FB003208FA00F1
:101A60004A08F700031D362D83123C2D8312031004
:101A7000FB0CFA0CF70B372D7A1C412D8316C8147A
:101A80008312831634081F39CA003108FB0030085E
:101A9000FA004A08F700031D4F2D8312552D8312BB
:101AA0000310FB0CFA0CF70B502D7A1C5A2D8316E1
:101AB0004814831283164808F8004908F900831275
:101AC00079088316C4007808C30083127C08760264
:101AD00003196C2D00306D2D0130F800F808031942
:101AE000912F8316BF08031D772D8312002F8312B9
:101AF00083164108430203197F2D8312882D831218
:101B0000831642084402031D872D8312002F83127F
:101B1000831634081F39C800C9004208CB004108A9
:101B2000CA0083128316CC0149082038CC0049082A
:101B30001038CD004A080339CE004B080039CF00D9
:101B40004D08D1004E08D200831283165310831221
:101B5000C11ABB2D4108F700F70C770C0339831627
:101B6000D40083124108033983165402031DBA2D91
:101B70008312BD2D83120030BE2D0130F800F8080D
:101B8000031DF42D83165108D4005208D50083128A
:101B90004108F700F70C770C0339F7000310F70D35
:101BA0007708393E84008316540880008312410868
:101BB000F700F70C770C0339F7000310F70D7708DF
:101BC000013E393E84008316550880008312410887
:101BD000043E0C39F700F33041057704C100C1120F
:101BE00000208316531483120030831653180130DB
:101BF000F8008312F8080319642E031083164B0CA7
:101C0000D0004A0CCF00D00CCF0C3F30D0054C0890
:101C1000D1004F08D2008312831653108312C11AC9
:101C2000222E4108F700F70C770C03398316D400F5
:101C300083124108033983165402031D212E831297
:101C4000242E83120030252E0130F800F808031DE1
:101C50005B2E83165108D4005208D5008312410828
:101C6000F700F70C770C0339F7000310F70D77082E
:101C7000393E840083165408800083124108F7001F
:101C8000F70C770C0339F7000310F70D7708013EC6
:101C9000393E840083165508800083124108043EB3
:101CA0000C39F700F33041057704C100C112002060
:101CB0008316531483120030831653180130F80032
:101CC0008312F808031D662E0030672E0130F800DD
:101CD000F8080319FF2E83164208C9004108C800FE
:101CE000831283164818762E8312912E8312831640
:101CF00034081F39CA00FA010130F9004A08F70018
:101D0000031D842E83128A2E83120310F90DFA0DFF
:101D1000F70B852E79088316B0047A08B104831274
:101D2000AF2E831634081F39CA00FA010130F900BA
:101D30004A08F700031D9E2E8312A42E831203105F
:101D4000F90DFA0DF70B9F2E7908FF3AF700FF30D7
:101D5000FA0677088316B0057A08B1058312831650
:101D6000C818B42E8312CF2E8312831634081F395D
:101D7000CA00FA010130F9004A08F700031DC22E1B
:101D80008312C82E83120310F90DFA0DF70BC32E20
:101D900079088316B2047A08B3048312ED2E8316F1
:101DA00034081F39CA00FA010130F9004A08F70067
:101DB000031DDC2E8312E22E83120310F90DFA0D9F
:101DC000F70BDD2E7908FF3AF700FF30FA067708A7
:101DD0008316B2057A08B305831203108316C90C63
:101DE000C80CC90CC80C3F30C90534081F39A03EC7
:101DF0008400480880008312831640148312912FB8
:101E000083164208C9004108C80083128316481887
:101E10000B2F8312262F8312831634081F39CA0012
:101E2000FA010130F9004A08F700031D192F831247
:101E30001F2F83120310F90DFA0DF70B1A2F7908D3
:101E40008316B0047A08B1048312442F8316340831
:101E50001F39CA00FA010130F9004A08F700031DD2
:101E6000332F8312392F83120310F90DFA0DF70B5C
:101E7000342F7908FF3AF700FF30FA067708831607
:101E8000B0057A08B10583128316C818492F83124A
:101E9000642F8312831634081F39CA00FA010130F7
:101EA000F9004A08F700031D572F83125D2F831294
:101EB0000310F90DFA0DF70B582F79088316B204A9
:101EC0007A08B3048312822F831634081F39CA009C
:101ED000FA010130F9004A08F700031D712F83123F
:101EE000772F83120310F90DFA0DF70B722F790873
:101EF000FF3AF700FF30FA0677088316B2057A0832
:101F0000B305831203108316C90CC80CC90CC80C86
:101F10003F30C90534081F39A03E840048088000BE
:101F200083120030831640180130F80083127808BD
:061F30008A110A161F29A8
:10200000B21B0A2883163D1C072883120A28831254
:1020100000300B280130F800F80803191828AF0821
:10202000031D16282E08143C03181828AF01AE0112
:102030002E082F04031D6F280830A9060030A919A7
:1020400001308316C100C20083128316C20803192F
:102050002B2883122E28831207102F2807143110E3
:1020600031088316870083120030B21A0130F8005D
:10207000F80803194628AF013230AE00AB0A2B082E
:102080000A3C03184528AB01B2126F28A9184C2846
:10209000AF011430AE006F282A08F70003195D283D
:1020A000013077020319622802307702031966288B
:1020B0000330770203196A286E281330AF00883086
:1020C000AE006F28AF01FF30AE006F28AF01323095
:1020D000AE006F28AF010530AE006F286F282E08C4
:1020E0000319AF03AE038A110A16392984011F3080
:1020F00083059F30840007308000A80109308316D3
:1021000099002230980090308312980029140330EF
:10211000AA00AB01AC01AD01A9142915AE01AF01B4
:10212000A9112912A912B001FF30B1002917A91372
:102130003210B2103211C2013212B11231088316BC
:102140008700831287160930831699002230980081
:10215000903083129800093083169900223098003D
:10216000903083129800B1123108831687008312D1
:1021700087168316BB01BC0183123213B213831678
:102180003D10BD1083128316BE0183120A128A15F8
:10219000972B0A168A110330AA008316BE0A8312EF
:1021A000A91C3129B21B312983163D1CD928831261
:1021B000312983122915E030831634051038B40014
:1021C0008312831634081F3E1F39F700E0303405B0
:1021D0007704B40083120A12822F0A160030A91B5A
:1021E0000130F800F8080319FA280A128A150020AD
:1021F0000A168A117C087602031900290030012989
:102200000130F800F80803192329B008031D232919
:10221000321A23290914831634081F390139003A68
:102220000319142983121C29831201308316C1005B
:1022300083120A1249250A160A128A157D2C0A16DB
:102240008A1109102829A630F700F70B252900006C
:10225000831634081F39003A031930298312E12804
:10226000831229110A128A1500200A168A116400A5
:102270000028A9184229FA308316BF0083120A12D7
:10228000CD270A16B21C9F290030291B0130F80007
:10229000F80803194D29321C83293008033C031D1B
:1022A0006729891009110A12A6230A16FF3083161E
:1022B000BF0083120A12CD270A163211FF30B30075
:1022C0000730B4000A1244220A16B001822989108C
:1022D0000911A91C78291030F700F70B6D290000AF
:1022E000B21C7729321D762909157729891481298D
:1022F00001308316D60083120A1255210A16B2182D
:102300008914B00A9E292C080319AD03AC032C08CC
:102310002D04031D9E29A9188E298D2932120A1217
:10232000A6230A163211FF30B3000730B4000A1298
:1023300044220A160130AD00F430AC00A429B001EB
:102340000130AD00F430AC00B214A91AA92905116E
:10235000AA2905158316051120308312A906CD2858
:02236000630018
:02400E00763FFB
:00000001FF
;PIC16F877
