:1000000000308A0087280000FF00030E83120313CC
:10001000A1000A08A0008A010408A2007708A30032
:100020007808A4007908A5007A08A6007B08A70034
:10003000831383128C308400801E20288C1A33286E
:10004000220884002308F7002408F8002508F90096
:100050002608FA002708FB0020088A00210E8300EA
:10006000FF0E7F0E09008A110A1244288C1E3628C2
:100070001808A8001A08F800A81C4028181218161A
:1000800000008A110A12452836287808C700470858
:10009000C80049103A083B0203196128BA08031D39
:1000A00059283B080F3C0319572849105828491470
:1000B000612801303B073A02031960284910612882
:1000C0004914003049180130F800F80803196A286B
:1000D000A91478284808C9002A303B078400490839
:1000E00080003B080F3C031D7728BB017828BB0A22
:1000F0008C128A110A12202883168C128312BB01DB
:10010000BA012914A91083168C16831200348401B5
:100110001F3083059F30840007308000A801043021
:100120008316990022309800903083129800043092
:100130008316990022309800903083129800FF3087
:10014000BC00BC123C088316870083128716BD01D1
:10015000BE017C20C10141080F3C031CBC29BD012C
:10016000C00140080E3C031CFE283D08BD0AC30028
:10017000C80049103A083B020319D128BA08031DE8
:10018000C9283B080F3C0319C7284910C82849143F
:10019000D12801303B073A020319D0284910D12851
:1001A0004914003049180130F800F8080319DA281A
:1001B000A914E8284808C9002A303B0784004908E8
:1001C00080003B080F3C031DE728BB01E828BB0A61
:1001D0003B083A020319EE280030EF280130F800FE
:1001E000F808031DFA280030A9180130F800F808B3
:1001F0000319FC280130BE00C00AB1283D08BD0A21
:10020000C300C80049103A083B0203191A29BA086A
:10021000031D12293B080F3C03191029491011290D
:1002200049141A2901303B073A02031919294910C8
:100230001A294914003049180130F800F808031948
:100240002329A91431294808C9002A303B07840012
:10025000490880003B080F3C031D3029BB013129B0
:10026000BB0A0030A9180130F800F808031D3A292C
:100270000130BE00BD013B083A020319412900309C
:1002800042290130F800F808031D692983168C12F1
:1002900083122A303A0784000008C4003A080F3C51
:1002A000031D5429BA015529BA0A4408F8007808F0
:1002B000C30083168C16831229144308F8007808AB
:1002C000C0003D084002031967290130BE00BD0A85
:1002D0003B297C20C201410842020318BA29C80107
:1002E00049103A083B0203198829BA08031D8029DE
:1002F0003B080F3C03197E2949107F29491488299E
:1003000001303B073A02031987294910882949140B
:10031000003049180130F800F80803199129A91490
:100320009F294808C9002A303B07840049088000FB
:100330003B080F3C031D9E29BB019F29BB0A831666
:100340008C1283122A303A0784000008C4003A084D
:100350000F3C031DAD29BA01AE29BA0A4408F800C2
:100360007808C30083168C16831229144308F800FA
:10037000C20A6B29C10AAB28BE080319C129003083
:0A038000C2290130BF00BC29630050
:02400E007E3FF3
:00000001FF
;PIC16F877
