:1000000010308A00C32B0000FF00030E831203137D
:10001000A1000A08A0008A010408A2007708A30032
:100020007808A4007908A5007A08A6007B08A70034
:10003000831383128C308400801E20288C1A33286E
:10004000220884002308F7002408F8002508F90096
:100050002608FA002708FB0020088A00210E8300EA
:10006000FF0E7F0E09008A110A124C280A108A100E
:100070000A11820701340234043407348C1E3E28EE
:100080001808A8001A08F800A81C48281812181602
:1000900000008A110A124D283E2878088316EC00C9
:1000A000EC1B542883126028831283166C08F03CE2
:1000B000031D5C2883125F288312A9106028A914ED
:1000C00083166C08ED00831283166E10831252089B
:1000D000530203198628D208031D7A285308273CA7
:1000E0000319762883166E108312792883166E14EE
:1000F000831286280130530752020319832883167E
:100100006E108312862883166E14831200308316B5
:100110006E180130F8008312F80803199128291588
:10012000A32883166D08EE0083122A30530784003B
:1001300083166E08800083125308273C031DA228F3
:10014000D301A328D30A8C128A110A122028640032
:1001500083165C08831203178D008F018316031327
:100160005D08831203178C0083168C130C15831201
:1001700003130B08F7008B135530831603178D00FC
:10018000AA308D008C1483120313831603178C1C62
:10019000CC2883120313C5280C117708831203138C
:1001A0008B046400003483163B08BE0003103C0D32
:1001B000F700F70DFC30F7057708203EBF00BD01C2
:1001C000831283163D08033C0318E8288312FC2899
:1001D000831283163D083F07C0003E083D07840098
:1001E0000008C1004008DC004108DD008312A720A0
:1001F0008316BD0A8312E1280034B8308400000859
:1002000003190F290630F800F701F70B0529F80B41
:1002100004297B30F700F70B0B29800B02290034EF
:10022000F701F8018316410803104218F707F70C8D
:10023000F80CC218F707F70CF80C4219F707F70C7F
:10024000F80CC219F707F70CF80C421AF707F70C6D
:10025000F80CC21AF707F70CF80C421BF707F70C5B
:10026000F80CC21BF707F70CF80C83128A110A125C
:10027000532D83166208E5000310630DF700F70D98
:10028000FC30F7057708203EE600E4018312831670
:100290006408033C03184E2983126F2983128316C6
:1002A00065086407E70064086607E800E900831250
:1002B00083166908831203178D008F0183168C1330
:1002C0000C1483120C08F8000313831667088400CB
:1002D0007808800083128316E40A831247290034C9
:1002E0008316580884000008F039D9005908F7002F
:1002F00080307702031D7E298312A4299030770273
:10030000031D84298312A429A0307702031D8A29A2
:100310008312A429B0307702031D90298312A429E7
:10032000E0307702031D96298312A429C03077029A
:10033000031D9C298312A729D0307702031DA2290F
:100340008312A7298312AA290330F800AD290230AD
:10035000F800AD290030F800AD29003401308316D3
:10036000E900831283166908831203178D008F0139
:1003700083168C130C1483120C08F80003137808EE
:100380008316DA005A08F80083120034F03083161E
:10039000DD00831283165D0883120C1ECD2999009F
:1003A00064007D308316DB008312DB308316DD00B2
:1003B000831283165D08840000088039003A031D0B
:1003C000E3298312EE29831283165D088400000856
:1003D0007F3980000130DE0083120A2A83165D080F
:1003E0008400000BF429F6298312F8298312022ACB
:1003F00083165D0884000008023C0319012A831259
:10040000072A831202308316DE0083120A2A83161B
:10041000DE01831283165E08F800831278088316C3
:10042000DC00DC08031D162A8312212A831283169E
:100430005C08DD00831283165D0883120C1E1E2AE1
:10044000990083165B08DD00831283165D08831212
:100450000C1E282A990064008316DB018312DB300E
:100460008316DD00831283165D088400000880393E
:10047000003A031D3D2A8312482A831283165D0821
:10048000840000087F3980000130DE008312642A76
:1004900083165D088400000B4E2A502A8312522ACC
:1004A00083125C2A83165D0884000008023C03194D
:1004B0005B2A8312612A831202308316DE008312C4
:1004C000642A8316DE01831283165E08F800831205
:1004D00078088316DC00DC08031D702A83127B2A4F
:1004E000831283165C08DD00831283165D08831275
:1004F0000C1E782A990083165B08DD008312831690
:100500005D0883120C1E822A99006400AE217808CF
:100510008316DA00DB008312DB308316DD008312E2
:1005200083165D08840000088039003A031D9A2A6A
:100530008312A52A831283165D08840000087F3980
:1005400080000130DE008312C12A83165D0884001A
:10055000000BAB2AAD2A8312AF2A8312B92A831665
:100560005D0884000008023C0319B82A8312BE2AE1
:10057000831202308316DE008312C12A8316DE0145
:10058000831283165E08F800831278088316DC0055
:10059000DC08031DCD2A8312D82A831283165C0837
:1005A000DD00831283165D0883120C1ED52A990084
:1005B00083165B08DD00831283165D0883120C1E10
:1005C000DF2A9900640000340830F800000004308D
:1005D000F700F70BE92A0613831606130630F70017
:1005E0008312F70BF12A8316EB0D83128613031C7B
:1005F000FC2A8316861783120318012B8316861391
:100600008312831606178312061F042BF80BE62AA3
:100610000430F700F70B0A2B0613831606130000AD
:1006200086170630F7008312F70B142B0630F700FD
:10063000F70B182B831606178312061F1D2BF801C4
:100640000630F700F70B222B861B7814061383164F
:1006500006138312861383168613831200348316BF
:100660006308E5006408E6008312831686170430E9
:10067000F7008312F70B3A2B831606170630F700A4
:100680008312F70B412B8613831686130430F70071
:100690008312F70B492B0613831606130310650C00
:1006A000E800E80C3F30E8050310E80D6808503812
:1006B000EA00EB008312E422831665080339E9009F
:1006C000EB008312E42283166608EB008312E42217
:1006D00083168613000006178312061F6D2B043045
:1006E000F700F70B712B000000000000831686173F
:1006F0000430F7008312F70B7B2B00346530831630
:10070000E1005F08073C031C872B83128C2B8312AC
:1007100064308316E100831207308316DF0560081A
:100720003F3C031C952B8312A92B8312831661086F
:1007300084000130F7005F08F800031DA12B83122D
:10074000A62B83120310F70DF80BA22B7708800459
:10075000BC2B8316610884000130F7005F08F800A5
:10076000031DB42B8312B92B83120310F70DF80B62
:10077000B52B7708FF3A800564308316E20002301B
:10078000E3004230E4008312D4115408831687003A
:10079000831287118316E5018312831663086502AD
:1007A000031CD42B83120A2C83128316620865075C
:1007B00084000008E700E601831283166608073C00
:1007C0000318E42B8312062C8312831667088039E2
:1007D000003A0319ED2B8312F02B83128810F12BB2
:1007E0008814831688100310E70D8312D41154085F
:1007F0008316870083128715D41154088316870047
:10080000831287118316E60A8312DD2B8316E50A0D
:100810008312CD2B83166408F70042307702031D44
:10082000132C8312152C83121E2C8316081183128D
:10083000081183160811831208151E2C0034D412D7
:10084000540883168700831287120830F8000000CE
:1008500000000000F8173E2CF8138316D60C831204
:1008600003188716031C871278173E2C7813F80B91
:100870002D2C00000000000087163E2C2F30840035
:10088000840B402CF81B2C2C781B362C0034831640
:100890003610B030B9007C30BA00B101B001B030D0
:1008A000BB000230BC003C30BD008312D4115408A0
:1008B000831687008312871183163D08F7003C30AA
:1008C0007702031D652C8312672C8312742C54113C
:1008D0005408831687008312071154115408831695
:1008E000870083120715752C752C8316BE018312A1
:1008F00083163C083E02031C7F2C8312CC2C8312EF
:100900008316C001BF01831283163F08073C0318FA
:100910008B2C8312C12C831203108316C00D3D084B
:10092000F7003C307702031D972C8312992C831219
:10093000A82C54165408831687008312071AA42C77
:10094000831641108312A72C831641148312A82CFE
:1009500083164118AD2C8312B12C831283164014D8
:100960008312D41154088316870083128715D4117B
:10097000540883168700831287118316BF0A8312D7
:10098000842C83163B083E078400400880008312B5
:100990008316BE0A8312782C7C0883163002031952
:1009A000D32C8312DC2C83127D0883163102031DA5
:1009B000DB2C8312A12E83128316B508031DE22CB3
:1009C0008312A12E83128316B8018312831638086E
:1009D000013C0318ED2C8312A12E83128316B7015C
:1009E000831283163708073C0318F82C83129D2EB8
:1009F000831283163908380784000008BB00F7000B
:100A00003708F800031D062D83120B2D83120310E7
:100A1000F70CF80B072D0030771801308316BC0057
:100A20003A08380784000008BD00F7003708F800CE
:100A3000031D1C2D8312212D83120310F70CF80BBC
:100A40001D2D00307718013083163C02031D2A2D1E
:100A50008312992E831283163808013CF700031085
:100A6000F70DF70DF70DF830F70577083707BD00DC
:100A70003908380784000008BE00F7003708F8007E
:100A8000031D442D8312492D83120310F70CF80B1C
:100A9000452D0030771C01308316C000C1007F3027
:100AA000C2008312102978088316C1003D08C200D5
:100AB0004108C3008312C5308316C9004208CA002A
:100AC0008312103083164A07CB004908E2004B0816
:100AD000E30083123921831648080439003A0319C8
:100AE000732D8312552E8312C5308316D8008312BE
:100AF000702178088316C40048080239003A031DA3
:100B0000832D8312882D83127F308316C3068312B0
:100B100083164408F70003307702031D912D8312DA
:100B2000992D02307702031D972D8312AC2D83126D
:100B3000B12D831648080139003A031DA12D8312F7
:100B4000A72D831283164308C6008312AB2D83168C
:100B50004308C7008312B12D83164308C6008312D1
:100B6000B12DC5308316CF008312033083164F0793
:100B7000840000080839003A031DC02D8312CD2DD2
:100B80008312033083164F07840000088039003A2F
:100B9000031DCC2D8312D12D831283165310831283
:100BA000D42D83165314831283164F08D800831252
:100BB000702178088316D0004F08D10083120230CC
:100BC0008316E900831283166908831203178D00C8
:100BD0008F0183168C130C1483120C08F800031376
:100BE0007808F80803190A2E530852020319FA2D3F
:100BF0000030FB2D0130F800F8080319082E6108B9
:100C0000F700770C0339003A031D082E611C0A2EE9
:100C100000300B2E0130F800F808031D132E8A1542
:100C200000208A11DF2D8316510884000008D400AB
:100C3000D5008312831655088312E2008316D20171
:100C40008312831650085202031C282E8312552E3D
:100C50008312831653182E2E8312432E831283166B
:100C60005108520784000008D400D50083120B13EA
:100C70008B138B1B382E83165508D60083121F2426
:100C8000C0308B04512E831651085207840000088F
:100C9000D400DD00831283165D0883120C1E4E2ED5
:100CA00099008316D20A8312212E0130F800F80829
:100CB0000319992E83163908380784000008BB00F1
:100CC000F7003708F800031D672E83126C2E83127D
:100CD0000310F70CF80B682E771C822E83163A0847
:100CE000380784000130F7003708F800031D7A2E1A
:100CF00083127F2E83120310F70DF80B7B2E7708DB
:100D00008004962E83163A08380784000130F700D5
:100D10003708F800031D8E2E8312932E83120310C2
:100D2000F70DF80B8F2E7708FF3A800583163614DF
:100D300083128316B70A8312F12C8316B80A831222
:100D4000E62C0030831636180130F8008312003488
:100D5000DD016110F9306105E1000F306105E1004E
:100D6000E201003483168C128312D301D201A91040
:100D70002914291183168C168312003475081F3923
:100D8000F7000310770C8316B500B50CB50C1F30B7
:100D9000B50575081F39B600361CD02E8312D32E28
:100DA00083128610D42E861475081F398316B60058
:100DB000B61CDC2E8312DF2E83120611E02E0615E0
:100DC00075081F398316B600361DE82E8312EB2EE8
:100DD00083128611EC2E8615000000000000000032
:100DE000000003108316350DF700F70DF70DF830EE
:100DF000F7057708F80083121F08C73978049F00A9
:100E00002130F700F70B022F8A110A160B2C203025
:100E10008316E400E001E101E201E3015B08FA006E
:100E20005A08F9005908F8005808F700831203100F
:100E3000771C2A2F83165C08E0075D0803185D0FF6
:100E4000E1075E0803185E0FE2075F0803185F0FF3
:100E5000E30783128316E30CE20CE10CE00CFA0CBE
:100E6000F90CF80CF70CE40B362F382F8312172FE0
:100E700083128A150A16D528F701F801F901FA013B
:100E80008316E001E101E201E3015F085E045D0415
:100E90005C04031D4D2F83128F2F83122030831685
:100EA000E400831203108316D80DD90DDA0DDB0D83
:100EB000E00DE10DE20DE30D5F0863020319622FFF
:100EC0008312712F5E0862020319682F8312712F3B
:100ED0005D08610203196E2F8312712F5C08600296
:100EE0008312031C842F83165C08E0025D08031C38
:100EF0005D0FE1025E08031C5E0FE2025F08031C47
:100F00005F0FE30203148312F70DF80DF90DFA0DCC
:100F10008316E40B8C2F8E2F8312522F8312000026
:100F2000E03084008A150A16F22875081F398316E6
:100F3000CB00C730CC004B08CD00831283164C0881
:100F4000E2004D08E3008312392183164708F03987
:100F5000E03C031DAD2F8312B72F831283164A087E
:100F60002039003A031DB62F8312BB2F83120030A5
:100F7000F800BE2FBE2F0330F800BE2F0034D4126D
:100F8000540883168700831287120830F800000087
:100F900000000000F817E42FF81383163608F90054
:100FA0008312F90C03188716031C87127817E42F95
:100FB0007813F80BD12F79088316B60000000000D3
:100FC000000083128716E42F08308400840BE62F7C
:0C0FD0000000F81BCC2F781BD82F003439
:101000005308520203190628003007280130F8005F
:10101000F808031D792F640083168C1283122A307E
:101020005207840000088316D90083125208273C17
:10103000031D1C28D2011D28D20A83165908F80066
:10104000831278088316D8008C168312291483160D
:101050005808F800831278088316D40054088039A1
:10106000003A031D35288312422B83120230831667
:10107000E900831283166908831203178D008F011C
:1010800083168C130C1483120C08F80003137808D1
:10109000F8080319552883165408DD0083128316B7
:1010A0005D0883120C1E5228990083165408F039EB
:1010B000D5005508F03C03195F288312242B8312B6
:1010C00083165408D800831283165808F700F030AE
:1010D0007702031D6D2883128D28F1307702031DDE
:1010E000732883129C28F2307702031D792883121B
:1010F000A428F3307702031D7F288312AC28F73031
:101100007702031D85288312B428FF307702031D60
:101110008B288312202B8312222B6114E115DD0111
:101120000F306105E100E201E301EB01EA01E901B1
:10113000E801E701EC01232B0F306105E100F930F4
:1011400061050238E100232B0F306105E100F93021
:1011500061050438E100232B0F306105E100F9300F
:1011600061050238E100232BE11D182B6608F7000A
:10117000013077020319C428770803195429023073
:1011800077020319FC2A172B0B138B138B1BC52813
:101190008316D90183126C0883165902031CD228C6
:1011A0008312EA2883126400670883165907DA005D
:1011B00007305907663E84000008DB005A08DC004F
:1011C0005B08DD0083128A11A7208A158316D90ACD
:1011D0008312CB28C0308B048A11C6218A150330B4
:1011E0008316DB008312DB308316DD008312831647
:1011F0005D08840000088039003A031D012983122C
:101200000C29831283165D08840000087F39800052
:101210000130DE008312282983165D088400000B4C
:1012200012291429831216298312202983165D0896
:1012300084000008023C03191F2983122529831208
:1012400002308316DE00831228298316DE01831202
:1012500083165E08F800831278088316DC00DC0829
:10126000031D342983123F29831283165C08DD0095
:10127000831283165D0883120C1E3C299900831685
:101280005B08DD00831283165D0883120C1E46295D
:101290009900F7308316DD00831283165D088312F0
:1012A0000C1E50299900182B8A11C6218A1501306D
:1012B0008316DB008312DB308316DD008312831676
:1012C0005D08840000088039003A031D69298312F3
:1012D0007429831283165D08840000087F3980001A
:1012E0000130DE008312902983165D088400000B14
:1012F0007A297C2983127E298312882983165D0826
:1013000084000008023C0319872983128D29831267
:1013100002308316DE00831290298316DE018312C9
:1013200083165E08F800831278088316DC00DC0858
:10133000031D9C298312A729831283165C08DD00F4
:10134000831283165D0883120C1EA429990083164C
:101350005B08DD00831283165D0883120C1EAE2924
:10136000990067088316D900831267088316DB008B
:101370008312DB308316DD00831283165D08840040
:1013800000088039003A031DC7298312D22983122D
:1013900083165D08840000087F3980000130DE007C
:1013A0008312EE2983165D088400000BD829DA2900
:1013B0008312DC298312E62983165D088400000865
:1013C000023C0319E5298312EB29831202308316AC
:1013D000DE008312EE298316DE01831283165E0877
:1013E000F800831278088316DC00DC08031DFA2954
:1013F0008312052A831283165C08DD00831283168C
:101400005D0883120C1E022A990083165B08DD001A
:10141000831283165D0883120C1E0C2A9900831612
:101420005908E900831283166908831203178D0097
:101430008F0183168C130C1483120C08F80003130D
:1014400078088316DA00DB008312DB308316DD00B8
:10145000831283165D08840000088039003A031D5A
:10146000332A83123E2A831283165D088400000803
:101470007F3980000130DE0083125A2A83165D080E
:101480008400000B442A462A8312482A8312522AD7
:1014900083165D0884000008023C0319512A831258
:1014A000572A831202308316DE0083125A2A8316CB
:1014B000DE01831283165E08F80083127808831613
:1014C000DC00DC08031D662A8312712A831283164E
:1014D0005C08DD00831283165D0883120C1E6E2AE1
:1014E000990083165B08DD00831283165D08831262
:1014F0000C1E782A99008316D90A64005908E9005D
:10150000831283166908831203178D008F018316D7
:101510008C130C1483120C08F8000313780883163C
:10152000DA00DB008312DB308316DD0083128316C2
:101530005D08840000088039003A031DA12A831247
:10154000AC2A831283165D08840000087F3980006E
:101550000130DE008312C82A83165D088400000B68
:10156000B22AB42A8312B62A8312C02A83165D08CF
:1015700084000008023C0319BF2A8312C52A831283
:1015800002308316DE008312C82A8316DE0183121E
:1015900083165E08F800831278088316DC00DC08E6
:1015A000031DD42A8312DF2A831283165C08DD0010
:1015B000831283165D0883120C1EDC2A99008316A1
:1015C0005B08DD00831283165D0883120C1EE62A79
:1015D00099006D08831659020319F02A83127B2A99
:1015E0008312F7308316DD00831283165D088312A1
:1015F0000C1EF82A9900182B8316D9018312831622
:10160000590F032B052B8312072B8312152B640014
:1016100083165908DC00FF30DD0083128A11A720F1
:101620008A158316D90A8312FF2A152B182B182B1B
:101630006110E111DD010F306105E100E201232BB2
:10164000202B232B232B412B61108316540883124C
:10165000DD005D308316D80083128A1170218A154F
:10166000013078020339F7000310F70DF9306105F6
:101670007704E100831654088312E2000F306105FD
:10168000E100782F6108103EF039F7000F30610556
:101690007704E100611C512C02308316E9008312AB
:1016A00083166908831203178D008F0183168C132C
:1016B0000C1483120C08F80003137808F8080319B7
:1016C0006B2B83165408DD00831283165D0883128A
:1016D0000C1E682B9900E11D502C63308316D80036
:1016E000D430D90083128316580884000008F7000C
:1016F000031D7C2B8312842B01307702031D822B68
:101700008312AA2B8312B62B831659088400000B70
:101710008A2B8C2B83128E2B8312982B83165908BD
:1017200084000008023C0319972B8312A62B831216
:1017300083165A105808DB00590884000008DC00A2
:101740005B0884005C0880008312A92B83165A145E
:101750008312BC2B83165A14580884008001590840
:1017600084000008803880008312BC2B83165A1432
:101770005808840080018312003083165A18013003
:10178000F8008312F8080319502C83165408D80067
:101790008312E80A0319E90A0319EA0A0319EB0A92
:1017A0006808F700013077020319E72B023077024F
:1017B0000319F72B033077020319062C0430770244
:1017C0000319212C053077020319292C322C83169A
:1017D00058087D3C031DEE2B8312F32B83128316D6
:1017E00059108312F62B831659148312442C831636
:1017F000D808031DFD2B8312022C83128316591067
:101800008312052C831659148312442C8A11AE219D
:101810008A15780883165802031D102C83121D2C7C
:1018200083128316580F152C172C8312192C831230
:101830001D2C831659108312202C831659148312E1
:10184000442C831658088312E60083165914831219
:10185000442C831658088312E700EC0183165914B0
:101860008312442C6C08033C031C402C07306C078B
:10187000663E840083165808800059148312432C56
:10188000831659108312EC0A003083165918013060
:10189000F8008312F808031D4F2CE111502CE115BC
:1018A000782F8316571483126108F700770C0339D9
:1018B000003A031DAC2C5D308316D80083128A11C8
:1018C00070218A15F808031D692C8316571083129E
:1018D0006C2C83165714831283165718712C83129D
:1018E000AC2C83125D308316D80083128A117021CC
:1018F0008A15013078020339F7000310F70DF9302B
:1019000061057704E1005D0862020319A82C02302A
:101910008316E900831283166908831203178D006A
:101920008F0183168C130C1483120C08F800031318
:101930007808F8080319A62C5D088316DD008312C9
:1019400083165D0883120C1EA32C99005D08E2002B
:101950000F3061051038E10083165718B12C83123F
:10196000782F831202308316E900831283166908E8
:10197000831203178D008F0183168C130C148312AE
:101980000C08F80003137808F8080319D12C831603
:101990005408DD00831283165D0883120C1ECE2CC2
:1019A00099005D308316D60083126108F700770E28
:1019B0000F3983165607840054088000831261088B
:1019C000063E0639F700F93061057704E100610849
:1019D000F700770C0339003A031D782F5D3083162A
:1019E000D800831202308316580784000310000DBC
:1019F000DE00DD01831283165D08073C0318022D0B
:101A000083127B2E8312D9308316DF005D08E0003D
:101A10008312203083166007E1005F08E20061084E
:101A2000E30083128A1139218A1583165808DF00D2
:101A3000D930E000831283165F0884000008E400B8
:101A40006008840000086402031D282D83122D2DD8
:101A50008312831661108312302D83166114831252
:101A60008316611C352D83123D2D831200308316A1
:101A700061180130F8008312C82D03308316600707
:101A8000840000082039003A031D482D8312712D6F
:101A90008312013083165F0784000008E4000130E0
:101AA0006007840000086402031D582D83126D2D09
:101AB0008312013083165F0784000008E7000230BC
:101AC0006007840000086702031D682D83126D2DD6
:101AD0008312831661108312702D83166114831292
:101AE000C22D033083166007840000080439003AD1
:101AF000031D7C2D8312812D8312831661108312A6
:101B0000842D8316611483120330831660078400CA
:101B100000080139003A03198F2D83129C2D83127E
:101B20008316600884000008E03C031D992D831291
:101B30009C2D831200309D2D01308316E200E208B7
:101B40000319A42D8312C22D831283166118AA2DA6
:101B50008312BB2D8312013083165F0784000008B7
:101B6000E40001306007840000086402031DBA2D00
:101B70008312BF2D8312831661108312C22D831628
:101B8000611483120030831661180130F80083124B
:101B9000F8080319772E83165C082039003A031DD4
:101BA000D32D8312262E831283165D08DF0058087A
:101BB000E000D930E1008312013083166007840011
:101BC0000008E40001306107840000086402031982
:101BD000EB2D8312FA2D83120230831660078400E6
:101BE0000008E20055305F0784000310620DF70023
:101BF0008000831201308316600784000008E4002F
:101C0000023061078400000864020319092E831260
:101C1000252E8312553083165F0784000008E200EA
:101C20000230600784008008031D182E83121C2ECA
:101C300083128316E20A831283165F08E3006208A8
:101C4000E40083128A112F238A15782F83165808EF
:101C500084000008E03C03192F2E83123E2E8312CD
:101C600001308316580784008008031D392E831223
:101C70003D2E83128316DE0A83124F2E83165C08D4
:101C80000139003A031D462E83124F2E8312013074
:101C90008316580784000310000DDE00831283169C
:101CA0005C080239003A031D572E83126E2E8312F0
:101CB000FF308316DE06580884000008E03C031D50
:101CC000632E83126E2E831283165E0B682E6A2E8D
:101CD00083126E2E83128316DE01831283165D0833
:101CE000E3005E08E40083128A112F238A1583160D
:101CF000DD0A8312FB2C8316DD01831283165D0837
:101D00000F3C0318852E8312782F8312D930831647
:101D1000DF005D08E0008312283083166007E100D1
:101D20005F08E2006108E30083128A1139218A15F5
:101D300083165808DF00D930E000831283165F084D
:101D400084000008E4006008840000086402031DA9
:101D5000AB2E8312B02E8312831661108312B32E22
:101D60008316611483128316611CB82E8312C02E51
:101D700083120030831661180130F80083124B2F54
:101D8000033083166007840000082039003A031DE1
:101D9000CB2E8312F42E8312013083165F0784004A
:101DA0000008E40001306007840000086402031D9D
:101DB000DB2E8312F02E8312013083165F0784001E
:101DC0000008E70002306007840000086702031D76
:101DD000EB2E8312F02E8312831661108312F32EE2
:101DE000831661148312452F033083166007840025
:101DF00000080439003A031DFF2E8312042F8312BA
:101E0000831661108312072F831661148312033027
:101E100083166007840000080139003A0319122F65
:101E200083121F2F83128316600884000008E03C91
:101E3000031D1C2F83121F2F83120030202F01300F
:101E40008316E200E2080319272F8312452F83121D
:101E5000831661182D2F83123E2F831201308316B3
:101E60005F0784000008E400013060078400000878
:101E70006402031D3D2F8312422F831283166110CB
:101E80008312452F83166114831200308316611864
:101E90000130F8008312F8080319742F83165C08C8
:101EA0000139003A031D562F83125E2F8312013031
:101EB0008316580784000008DE00831283165C082E
:101EC0000239003A031D662F83126B2F83127F3075
:101ED0008316DE06831283165D08DF005E08E000CD
:101EE00083128A117E238A158316DD0A83127E2EC1
:101EF000002800340030291A01308316B5008312FF
:101F0000003029190130F800780883163502031DC6
:101F10008B2F83129A2F8312003029190130F80079
:101F2000F808031D952F2912962F29168316B30141
:101F3000B20183128316320833040319A12F8312CE
:101F4000E62F83120830A9060030A9190130831644
:101F5000B500B60083128316B6080319B12F831299
:101F6000B42F83120710B52F07145410540883168A
:101F700087008312003029190130F800F80803198E
:101F8000C72F8316B301FF30B2008312CD2F133059
:101F90008316B3008830B200831283163510831283
:101FA000291CD52F8316351483122910003083166F
:101FB00035180130F8008312F808031DE52F8A1147
:101FC000A8268A158A11B2268A15EC2F83163208A4
:0E1FD0000319B303B20383128A110A165E2CA2
:102000000B138B138B1B01288316E9018312831694
:102010006908831203178D008F0183168C130C142B
:1020200083120C08F8000313F8080319192800306C
:102030001A280130F800F808031D03298316B90196
:102040008312831639080F3C03182828831250285E
:102050008312B5308316BA003908BB008312831689
:102060003A088400B030800001303A0784000C3018
:102070003B07800002303A078400800103303A07B2
:10208000840080018312B5308316BB003908BC0080
:1020900083120A12D3200A168316B90A8312212842
:1020A0008316B9018312831639080F3C03185A2886
:1020B000831285288312B5308316BA003908BB0015
:1020C000831283163A088400B030800001303A074A
:1020D000840040303B07800002303A0784008001D2
:1020E00003303A07840080018312103083163907C9
:1020F000BA00B530BB003A08BC0083120A12D320E4
:102100000A168316B90A831253288316B90183125B
:1021100083163908073C03188F288312C7288312B7
:10212000B5308316BA003908BB00831283163A080B
:10213000840003103B0CF700F70C3F30F7057708DD
:10214000B038800001303A0784003B08033983121D
:102150000A1236200A16F8008000023083163A0769
:102160008400800103303A0784008001831220300C
:1021700083163907BA00B530BB003A08BC00831299
:102180000A12D3200A168316B90A831288288316E6
:10219000B9018312831639080F3C0318D128831222
:1021A000FC288312B5308316BA003908BB008312AD
:1021B00083163A088400B030800001303A0784006A
:1021C00050303B07800002303A0784008001033022
:1021D0003A07840080018312283083163907BA0039
:1021E000B530BB003A08BC0083120A12D3200A168D
:1021F0008316B90A8312CA288316DC01DD01831213
:102200000A12A7200A168316B50183128316350811
:10221000073C03180D298312352983128316B70151
:102220006430B6008312541054088316870083125A
:102230000714640083163608B80083120A12FD20C2
:102240000A1664005410540883168700831207107E
:1022500083163608B80083120A12FD200A1664009D
:1022600064008316B50A831206291F083839C1385D
:102270009F00853083169F00E0307505F500F13032
:102280008600F201F101F401F301B5018312831616
:1022900035080F3C03184E29831259298312A030A8
:1022A000831635078400800183128316B50A8312D2
:1022B00047298316B50183120A1247240A16E4013E
:1022C000E5018316DF01E00183120A127E230A165C
:1022D0000A12A8260A168316B90183128316390832
:1022E0000F3C0318752983123D2A83126400B53010
:1022F0008316CC003908CD00831283164C08E20007
:102300004D08E30083120A1239210A168316380891
:102310001039003A031D8E298312392A8312B530F1
:102320008316CF008312033083164F078400000802
:102330000839003A031D9E298312AB29831203300A
:1023400083164F07840000088039003A031DAA292C
:102350008312AF298312831653108312B229831676
:102360005314831283164F08D80083120A12702167
:102370000A1678088316D0004F08D1008312023065
:102380008316E900831283166908831203178D00F0
:102390008F0183168C130C1483120C08F80003139E
:1023A0007808F8080319EA29530852020319DA29B0
:1023B0000030DB290130F800F8080319E82961082A
:1023C000F700770C0339003A031DE829611CEA295C
:1023D0000030EB290130F800F808031DF5290A1236
:1023E0008A1500200A168A11BF2983165108840015
:1023F0000008D400D5008312831655088312E2002A
:102400008316D2018312831650085202031C0A2A33
:102410008312392A831283165318102A8312272A0B
:10242000831283165108520784000008D400D50097
:1024300083120B138B138B1B1A2A83165508D60095
:1024400083120A121F240A16C0308B04352A831601
:102450005108520784000008D400DD00831283165F
:102460005D0883120C1E322A99008316D20A831249
:10247000032A8316B90A83126E298316B9018312BF
:10248000831639080F3C0318472A8312122B831234
:102490006400B5308316C9003908CA0083121030B1
:1024A00083164A07CB004908E2004B08E300831279
:1024B0000A1239210A16831638081039003A031D0A
:1024C000632A83120E2B8312B5308316CF0083123A
:1024D000033083164F07840000080839003A031DB3
:1024E000732A8312802A8312033083164F078400D5
:1024F00000088039003A031D7F2A8312842A831240
:10250000831653108312872A83165314831283165B
:102510004F08D80083120A1270210A167808831611
:10252000D0004F08D100831202308316E9008312D5
:1025300083166908831203178D008F0183168C138D
:102540000C1483120C08F80003137808F808031918
:10255000BF2A530852020319AF2A0030B02A0130B3
:10256000F800F8080319BD2A6108F700770C033951
:10257000003A031DBD2A611CBF2A0030C02A013069
:10258000F800F808031DCA2A0A128A1500200A1644
:102590008A11942A8316510884000008D400D500BB
:1025A0008312831655088312E2008316D201831228
:1025B000831650085202031CDF2A83120E2B83124B
:1025C00083165318E52A8312FC2A831283165108B6
:1025D000520784000008D400D50083120B138B131C
:1025E0008B1BEF2A83165508D60083120A121F246C
:1025F0000A16C0308B040A2B831651085207840038
:102600000008D400DD00831283165D0883120C1EBF
:10261000072B99008316D20A8312D82A8316B90A87
:102620008312402A8316B901831283163908073CA6
:1026300003181C2B8312682B83126400B530831699
:10264000DF003908E0008312203083166007E100C4
:102650005F08E2006108E30083120A1239210A16BA
:10266000831638081039003A031D382B8312642B67
:102670008312831638080139003A031D412B831257
:10268000472B831283163608BA0083124B2B83160E
:102690003708BA008312831638080239003A031D3E
:1026A000532B8312582B83127F308316BA06831262
:1026B000031083163A0DBB003908E3003B08E40021
:1026C00083120A122F230A168316B90A8312152BB6
:1026D0008316B9018312831639080F3C0318722B35
:1026E0008312BB2B83126400B5308316DF003908D8
:1026F000E0008312283083166007E1005F08E200E3
:102700006108E30083120A1239210A168316380879
:102710001039003A031D8E2B8312B72B83128316B8
:1027200038080139003A031D972B83129D2B831221
:1027300083163608BA008312A12B83163708BA0015
:102740008312831638080239003A031DA92B83121D
:10275000AE2B83127F308316BA0683128316390894
:10276000DF003A08E00083120A127E230A1683165D
:10277000B90A83126B2B0A12B2260A16C0308B04D8
:102780008A110A16FD2B84011F3083059F308400B7
:1027900007308000A8010930831699002230980084
:1027A000903083129800A910FF30D400D41254083E
:1027B000831687008312871609308316990022300A
:1027C00098009030831298000930831699002230C7
:1027D0009800903083129800D41254088316870012
:1027E000831287168316B201B3018312A91129122D
:1027F00061308316B40083120028E030750510386C
:10280000F50075081F3E1F39F700E03075057704A5
:10281000F5000A12BE2E0A1601308316B500831287
:102820000A1247240A168A1500288A1164007508BE
:102830001F39003A031D012C83163408B50083129A
:102840000B138B138B1B212C83163508B6008312B8
:102850000A12BF270A16C0308B048316B40A340844
:102860007A3C0319352C83125A2C8312613083165B
:10287000B4000D30B50083120B138B138B1B3D2C52
:1028800083163508B60083120A12BF270A16C03015
:102890008B040A308316B50083120B138B138B1B2A
:1028A0004E2C83163508B60083120A12BF270A166B
:1028B000C0308B0464000A128A157A2F0A168A1116
:0E28C0000A128A1500200A168A11FD2B6300E9
:1030000001308316B500831283163610BC01BD0152
:103010000430BB00640083128316BB08031D122812
:103020008312332883128316BE01BF0183121F153A
:103030001F1918281E08FA0083161E08BE007A08F9
:10304000BF003E08F8003F08F90083127908831694
:10305000B8007808B700BC070318BD0A3808BD07D8
:10306000BB0383120C2803108316BD0CBC0CBD0CD3
:10307000BC0C3F30BD053D08B8003C08B7007508E2
:103080001F39BE00BF003808C1003708C0008312D6
:10309000C2308316CC003F08CD00831283164C0843
:1030A000E2004D08E30083120A128A1139210A1640
:1030B0008A15831645088039003A031D612883125A
:1030C0002929831283164108C8004008C7008312CB
:1030D00003108316480CCA00470CC900CA0CC90C5F
:1030E000CA0CC90C1F30CA054908D30044087F39EF
:1030F000530203187D288312832883127F30F8003F
:103100000030F9002629831645087F395302031D34
:103110008B2883129028031C8F28831295288312F2
:103120000030F8000030F9002629831645087F3961
:10313000CF00D0010310CF0DD00DCF0DD00DCF0D8E
:10314000D00DF830CF0544087F39D100D2010310EB
:10315000D10DD20DD10DD20DD10DD20DF830D1053A
:103160004F085102CD005208CE005008031C500FEA
:10317000CE024F084702C9004808CA005008031C85
:10318000500FCA02CB01CC014C08DB004B08DA001F
:103190004A08D9004908D800DF01DE01DD017F308F
:1031A000DC0083120A128A11072F0A168A157A0880
:1031B0008316CC007908CB007808CA007708C900CC
:1031C0004C08DB004B08DA004A08D9004908D8004F
:1031D000DF01DE014E08DD004D08DC0083120A121B
:1031E0008A113C2F0A168A157A088316CC007908B2
:1031F000CB007808CA007708C900CC080319022957
:103200008312192983128316CB0803190929831203
:10321000192983128316CA08031910298312192940
:103220008312831649087F3C031C18298312202926
:1032300083128316CC01CB01CA017F30C9008312EF
:1032400083164908F8004A08F900831279086D29A5
:103250006729831645082039003A031D3129831256
:103260003A29831283164008F8004108F9008312B6
:103270006D2967290A128A1195270A168A15780876
:103280008316C60083128316C608031D49298312BC
:10329000672983128316C603FA010130F900460834
:1032A000F700031D552983125B2983120310F90DC2
:1032B000FA0DF70B56297908FF3AF700FF30FA06A6
:1032C00077088316C0057A08C1058312432983163F
:1032D0004008F8004108F900831279088316B80005
:1032E0007808B70083128316BE01BF0175081F3925
:1032F000A03E84000008FA01BE007A08BF00031057
:10330000BE0DBF0DBE0DBF0DFC30BE0575081F39CB
:10331000C0007408FB007308FA004008F700031DA2
:1033200093298312992983120310FB0CFA0CF70BD3
:1033300094297A1C9E298316BE14831275081F399E
:103340008316C0007208FB007108FA004008F700FD
:10335000031DAC298312B22983120310FB0CFA0C53
:10336000F70BAD297A1CB72983163E1483128316F6
:103370003E08F8003F08F900831279088316BA0066
:103380007808B9008312530852020319C929003082
:10339000CA290130F800F8080319552F8316B5081B
:1033A000031DD4298312CC2E8312831637083902C9
:1033B0000319DC298312E5298312831638083A029F
:1033C000031DE4298312CC2E831275081F3983163E
:1033D000BE00BF003808C1003708C0008312C330E8
:1033E0008316CC003F08CD00831283164C08E20000
:1033F0004D08E30083120A128A1139210A168A1530
:10340000831646088039003A031D082A8312E22AEF
:10341000831283164008C7008312C3308316D80076
:1034200083120A128A1170210A168A1578088316E7
:10343000C800F70003307702031D202A8312282AD0
:1034400002307702031D262A83122E2A8312342A81
:10345000831647087F39C5008312342A831647082C
:103460007F39C4008312342AC3308316CF008312FD
:10347000033083164F07840000080839003A031D03
:10348000432A8312502A8312033083164F07840085
:1034900000088039003A031D4F2A8312542A8312F0
:1034A000831653108312572A8316531483128316DC
:1034B0004F08D80083120A128A1170210A168A1541
:1034C00078088316D0004F08D1008312023083168B
:1034D000E900831283166908831203178D008F0198
:1034E00083168C130C1483120C08F800031378084D
:1034F000F8080319912A530852020319812A00304F
:10350000822A0130F800F80803198F2A6108F700B1
:10351000770C0339003A031D8F2A611C912A003071
:10352000922A0130F800F808031D9A2A0A12002096
:103530000A16662A8316510884000008D400D500B4
:103540008312831655088312E2008316D201831278
:10355000831650085202031CAF2A8312E02A8312FA
:1035600083165318B52A8312CE2A83128316510864
:10357000520784000008D400D50083120B138B136C
:103580008B1BBF2A83165508D60083120A128A1194
:103590001F240A168A15C0308B04DC2A83165108B2
:1035A000520784000008D400DD00831283165D08F2
:1035B00083120C1ED92A99008316D20A8312A82AD4
:1035C00078083C2E831646080439003A0319EA2A83
:1035D00083123A2E8312831646080239003A031DDD
:1035E000F32A8312FA2A8312FF308316C006FF30B3
:1035F000C1068312C3308316D80083120A128A11BF
:1036000070210A168A1578088316C200F700033065
:103610007702031D0D2B8312152B02307702031D39
:10362000132B83127F2D83128E2D0A128A11952758
:103630000A168A15F8080319442B8316460801391F
:10364000003A031D252B8312352B8312031083169A
:10365000C10CC00CC10CC00CC10CC00C1F30C1058A
:1036600040087F39C4008312432B03108316C10C1A
:10367000C00CC10CC00CC10CC00C1F30C1054008EF
:103680007F39C50083127E2D83164108C80040088B
:10369000C7008312831646082039003A031D522BB7
:1036A0008312C12C8312831647080739C9004508C5
:1036B000CA000310C80CC70CC80CC70CC80CC70C38
:1036C0001F30C80547087F39C500C330CF008312BB
:1036D000033083164F07840000080839003A031DA1
:1036E000732B8312802B8312033083164F078400C1
:1036F00000088039003A031D7F2B8312842B83122C
:10370000831653108312872B831653148312831648
:103710004F08D80083120A128A1170210A168A15DE
:1037200078088316D0004F08D10083120230831628
:10373000E900831283166908831203178D008F0135
:1037400083168C130C1483120C08F80003137808EA
:10375000F8080319C12B530852020319B12B00308A
:10376000B22B0130F800F8080319BF2B6108F700ED
:10377000770C0339003A031DBF2B611CC12B0030AD
:10378000C22B0130F800F808031DCA2B0A120020D2
:103790000A16962B8316510884000008D400D50021
:1037A0008312831655088312E2008316D201831216
:1037B000831650085202031CDF2B8312102C831235
:1037C00083165318E52B8312FE2B831283165108A0
:1037D000520784000008D400D50083120B138B130A
:1037E0008B1BEF2B83165508D60083120A128A1101
:1037F0001F240A168A15C0308B040C2C831651081E
:10380000520784000008D400DD00831283165D088F
:1038100083120C1E092C99008316D20A8312D82B0E
:1038200083164A08C4004908C500C330CF0083127C
:10383000033083164F07840000080839003A031D3F
:10384000232C8312302C8312033083164F078400FD
:1038500000088039003A031D2F2C8312342C831268
:10386000831653108312372C831653148312831636
:103870004F08D80083120A128A1170210A168A157D
:1038800078088316D0004F08D100831202308316C7
:10389000E900831283166908831203178D008F01D4
:1038A00083168C130C1483120C08F8000313780889
:1038B000F8080319712C530852020319612C0030C7
:1038C000622C0130F800F80803196F2C6108F7002A
:1038D000770C0339003A031D6F2C611C712C0030EA
:1038E000722C0130F800F808031D7A2C0A1200200F
:1038F0000A16462C8316510884000008D400D5000F
:103900008312831655088312E2008316D2018312B4
:10391000831650085202031C8F2C8312C02C831272
:1039200083165318952C8312AE2C831283165108DC
:10393000520784000008D400D50083120B138B13A8
:103940008B1B9F2C83165508D60083120A128A11EE
:103950001F240A168A15C0308B04BC2C831651080C
:10396000520784000008D400DD00831283165D082E
:1039700083120C1EB92C99008316D20A8312882C4C
:103980007C2D831647080739C4000310C80CC70CE8
:10399000C80CC70CC80CC70C1F30C80547087F39B6
:1039A000C500C330CF008312033083164F07840055
:1039B00000080839003A031DDF2C8312EC2C831217
:1039C000033083164F07840000088039003A031D36
:1039D000EB2C8312F02C8312831653108312F32CDA
:1039E00083165314831283164F08D80083120A12C9
:1039F0008A1170210A168A1578088316D0004F089C
:103A0000D100831202308316E900831283166908FD
:103A1000831203178D008F0183168C130C148312ED
:103A20000C08F80003137808F80803192D2D530823
:103A3000520203191D2D00301E2D0130F800F80828
:103A400003192B2D6108F700770C0339003A031D89
:103A50002B2D611C2D2D00302E2D0130F800F80883
:103A6000031D362D0A1200200A16022D8316510856
:103A700084000008D400D5008312831655088312F1
:103A8000E2008316D2018312831650085202031CEF
:103A90004B2D83127C2D831283165318512D8312C4
:103AA0006A2D831283165108520784000008D4003F
:103AB000D50083120B138B138B1B5B2D83165508BC
:103AC000D60083120A128A111F240A168A15C030E2
:103AD0008B04782D83165108520784000008D40007
:103AE000DD00831283165D0883120C1E752D99006C
:103AF0008316D20A8312442D78083C2E8E2D031093
:103B00008316C10CC00CC10CC00CC10CC00C1F3002
:103B1000C10540087F39C40083128E2DC33083163F
:103B2000CF008312033083164F0784000008083942
:103B3000003A031D9D2D8312AA2D83120330831694
:103B40004F07840000088039003A031DA92D831215
:103B5000AE2D8312831653108312B12D8316531486
:103B6000831283164F08D80083120A128A1170211B
:103B70000A168A1578088316D0004F08D1008312E0
:103B800002308316E9008312831669088312031733
:103B90008D008F0183168C130C1483120C08F8000F
:103BA00003137808F8080319EB2D53085202031980
:103BB000DB2D0030DC2D0130F800F8080319E92D69
:103BC0006108F700770C0339003A031DE92D611CE9
:103BD000EB2D0030EC2D0130F800F808031DF42D1A
:103BE0000A1200200A16C02D83165108840000080E
:103BF000D400D5008312831655088312E200831681
:103C0000D2018312831650085202031C092E83121C
:103C10003A2E8312831653180F2E8312282E8312E6
:103C200083165108520784000008D400D50083127F
:103C30000B138B138B1B192E83165508D60083127A
:103C40000A128A111F240A168A15C0308B04362ED8
:103C500083165108520784000008D400DD00831247
:103C600083165D0883120C1E332E99008316D20A28
:103C70008312022E0130F800F8080319CB2E8316A8
:103C80003808BF003708BE00831283163E184A2E3C
:103C90008312632E831275081F398316C000FA0140
:103CA0000130F9004008F700031D582E83125E2EE4
:103CB00083120310F90DFA0DF70B592E7908F10450
:103CC0007A08F2047F2E75081F398316C000FA01A6
:103CD0000130F9004008F700031D702E8312762E84
:103CE00083120310F90DFA0DF70B712E7908FF3AC4
:103CF000F700FF30FA067708F1057A08F205831617
:103D0000BE18842E83129D2E831275081F398316C8
:103D1000C000FA010130F9004008F700031D922E9F
:103D20008312982E83120310F90DFA0DF70B932EC0
:103D30007908F3047A08F404B92E75081F3983163C
:103D4000C000FA010130F9004008F700031DAA2E57
:103D50008312B02E83120310F90DFA0DF70BAB2E60
:103D60007908FF3AF700FF30FA067708F3057A087A
:103D7000F40503108316BF0CBE0CBF0CBE0C3F3005
:103D8000BF0575081F39A03E84003E0880008312DD
:103D9000831636148312552F83163808BF00370850
:103DA000BE00831283163E18D72E8312F02E831284
:103DB00075081F398316C000FA010130F900400868
:103DC000F700031DE52E8312EB2E83120310F90D6D
:103DD000FA0DF70BE62E7908F1047A08F2040C2F9D
:103DE00075081F398316C000FA010130F900400838
:103DF000F700031DFD2E8312032F83120310F90D0C
:103E0000FA0DF70BFE2E7908FF3AF700FF30FA069D
:103E10007708F1057A08F2058316BE18112F831270
:103E20002A2F831275081F398316C000FA0101304A
:103E3000F9004008F700031D1F2F8312252F83125E
:103E40000310F90DFA0DF70B202F7908F3047A0807
:103E5000F404462F75081F398316C000FA0101309B
:103E6000F9004008F700031D372F83123D2F8312FE
:103E70000310F90DFA0DF70B382F7908FF3AF70008
:103E8000FF30FA067708F3057A08F4050310831665
:103E9000BF0CBE0CBF0CBE0C3F30BF0575081F39F0
:103EA000A03E84003E08800083120030831636183E
:0E3EB0000130F800831278088A110A16152CCA
:02400E00460F5B
:00000001FF
;PIC16F877
